{
  "_format": "hh-sol-artifact-1",
  "contractName": "MarketSentiment",
  "sourceName": "contracts/MarketSentiment.sol",
  "abi": [
    {
      "inputs": [],
      "stateMutability": "nonpayable",
      "type": "constructor"
    },
    {
      "anonymous": false,
      "inputs": [
        {
          "indexed": false,
          "internalType": "uint256",
          "name": "up",
          "type": "uint256"
        },
        {
          "indexed": false,
          "internalType": "uint256",
          "name": "down",
          "type": "uint256"
        },
        {
          "indexed": false,
          "internalType": "address",
          "name": "voter",
          "type": "address"
        },
        {
          "indexed": false,
          "internalType": "string",
          "name": "ticker",
          "type": "string"
        }
      ],
      "name": "tickerUpdated",
      "type": "event"
    },
    {
      "inputs": [],
      "name": "ADMIN",
      "outputs": [
        {
          "internalType": "bytes32",
          "name": "",
          "type": "bytes32"
        }
      ],
      "stateMutability": "view",
      "type": "function"
    },
    {
      "inputs": [],
      "name": "USER",
      "outputs": [
        {
          "internalType": "bytes32",
          "name": "",
          "type": "bytes32"
        }
      ],
      "stateMutability": "view",
      "type": "function"
    },
    {
      "inputs": [
        {
          "internalType": "string",
          "name": "_ticker",
          "type": "string"
        }
      ],
      "name": "addTicker",
      "outputs": [],
      "stateMutability": "nonpayable",
      "type": "function"
    },
    {
      "inputs": [
        {
          "internalType": "string",
          "name": "_ticker",
          "type": "string"
        }
      ],
      "name": "getVotes",
      "outputs": [
        {
          "internalType": "uint256",
          "name": "up",
          "type": "uint256"
        },
        {
          "internalType": "uint256",
          "name": "down",
          "type": "uint256"
        }
      ],
      "stateMutability": "view",
      "type": "function"
    },
    {
      "inputs": [
        {
          "internalType": "bytes32",
          "name": "_role",
          "type": "bytes32"
        },
        {
          "internalType": "address",
          "name": "_account",
          "type": "address"
        }
      ],
      "name": "grantRole",
      "outputs": [],
      "stateMutability": "nonpayable",
      "type": "function"
    },
    {
      "inputs": [],
      "name": "owner",
      "outputs": [
        {
          "internalType": "address",
          "name": "",
          "type": "address"
        }
      ],
      "stateMutability": "view",
      "type": "function"
    },
    {
      "inputs": [
        {
          "internalType": "uint256",
          "name": "",
          "type": "uint256"
        }
      ],
      "name": "tickersArray",
      "outputs": [
        {
          "internalType": "string",
          "name": "",
          "type": "string"
        }
      ],
      "stateMutability": "view",
      "type": "function"
    },
    {
      "inputs": [
        {
          "internalType": "string",
          "name": "_ticker",
          "type": "string"
        },
        {
          "internalType": "bool",
          "name": "_vote",
          "type": "bool"
        }
      ],
      "name": "vote",
      "outputs": [],
      "stateMutability": "nonpayable",
      "type": "function"
    }
  ],
  "bytecode": "0x608060405234801561001057600080fd5b50336000806101000a81548173ffffffffffffffffffffffffffffffffffffffff021916908373ffffffffffffffffffffffffffffffffffffffff1602179055506100817fdf8b4c520ffe197c5343c6f5aec59570151ef9a492f2c624fd45ddde6135ec423361008660201b60201c565b6100f3565b60016002600084815260200190815260200160002060008373ffffffffffffffffffffffffffffffffffffffff1673ffffffffffffffffffffffffffffffffffffffff16815260200190815260200160002060006101000a81548160ff0219169083151502179055505050565b61116a806101026000396000f3fe608060405234801561001057600080fd5b50600436106100885760003560e01c806376152ab21161005b57806376152ab2146100ff578063805265e51461012f57806381e167cf146101605780638da5cb5b1461017e57610088565b806327d3410c1461008d5780632a0acc6a146100a95780632f2ff15d146100c75780635f6449ad146100e3575b600080fd5b6100a760048036038101906100a29190610a43565b61019c565b005b6100b16103c1565b6040516100be9190610c38565b60405180910390f35b6100e160048036038101906100dc91906109c6565b6103e5565b005b6100fd60048036038101906100f89190610a02565b6104b2565b005b61011960048036038101906101149190610a97565b61065f565b6040516101269190610c53565b60405180910390f35b61014960048036038101906101449190610a02565b61070b565b604051610157929190610d15565b60405180910390f35b6101686107b2565b6040516101759190610c38565b60405180910390f35b6101866107d6565b6040516101939190610c1d565b60405180910390f35b6003826040516101ac9190610c06565b908152602001604051809103902060000160009054906101000a900460ff1661020a576040517f08c379a000000000000000000000000000000000000000000000000000000000815260040161020190610c95565b60405180910390fd5b60038260405161021a9190610c06565b908152602001604051809103902060030160003373ffffffffffffffffffffffffffffffffffffffff1673ffffffffffffffffffffffffffffffffffffffff16815260200190815260200160002060009054906101000a900460ff16156102b6576040517f08c379a00000000000000000000000000000000000000000000000000000000081526004016102ad90610cd5565b60405180910390fd5b60006003836040516102c89190610c06565b9081526020016040518091039020905060018160030160003373ffffffffffffffffffffffffffffffffffffffff1673ffffffffffffffffffffffffffffffffffffffff16815260200190815260200160002060006101000a81548160ff021916908315150217905550600115158215151461035c5780600201600081548092919061035390610efe565b91905055610376565b80600101600081548092919061037190610efe565b919050555b507fb002715139b33590b43cf49947dfd3314c9ae776830367fbd8843fd3cda25fb88160010154826002015433866040516103b49493929190610d3e565b60405180910390a1505050565b7fdf8b4c520ffe197c5343c6f5aec59570151ef9a492f2c624fd45ddde6135ec4281565b7fdf8b4c520ffe197c5343c6f5aec59570151ef9a492f2c624fd45ddde6135ec426002600082815260200190815260200160002060003373ffffffffffffffffffffffffffffffffffffffff1673ffffffffffffffffffffffffffffffffffffffff16815260200190815260200160002060009054906101000a900460ff166104a3576040517f08c379a000000000000000000000000000000000000000000000000000000000815260040161049a90610cf5565b60405180910390fd5b6104ad83836107fa565b505050565b7fdf8b4c520ffe197c5343c6f5aec59570151ef9a492f2c624fd45ddde6135ec426002600082815260200190815260200160002060003373ffffffffffffffffffffffffffffffffffffffff1673ffffffffffffffffffffffffffffffffffffffff16815260200190815260200160002060009054906101000a900460ff16610570576040517f08c379a000000000000000000000000000000000000000000000000000000000815260040161056790610cf5565b60405180910390fd5b6003826040516105809190610c06565b908152602001604051809103902060000160009054906101000a900460ff16156105df576040517f08c379a00000000000000000000000000000000000000000000000000000000081526004016105d690610c75565b60405180910390fd5b60006003836040516105f19190610c06565b9081526020016040518091039020905060018160000160006101000a81548160ff021916908315150217905550600183908060018154018082558091505060019003906000526020600020016000909190919091509080519060200190610659929190610867565b50505050565b6001818154811061066f57600080fd5b90600052602060002001600091509050805461068a90610e9b565b80601f01602080910402602001604051908101604052809291908181526020018280546106b690610e9b565b80156107035780601f106106d857610100808354040283529160200191610703565b820191906000526020600020905b8154815290600101906020018083116106e657829003601f168201915b505050505081565b60008060038360405161071e9190610c06565b908152602001604051809103902060000160009054906101000a900460ff1661077c576040517f08c379a000000000000000000000000000000000000000000000000000000000815260040161077390610cb5565b60405180910390fd5b600060038460405161078e9190610c06565b90815260200160405180910390209050806001015481600201549250925050915091565b7f2db9fd3d099848027c2383d0a083396f6c41510d7acfd92adc99b6cffcf31e9681565b60008054906101000a900473ffffffffffffffffffffffffffffffffffffffff1681565b60016002600084815260200190815260200160002060008373ffffffffffffffffffffffffffffffffffffffff1673ffffffffffffffffffffffffffffffffffffffff16815260200190815260200160002060006101000a81548160ff0219169083151502179055505050565b82805461087390610e9b565b90600052602060002090601f01602090048101928261089557600085556108dc565b82601f106108ae57805160ff19168380011785556108dc565b828001600101855582156108dc579182015b828111156108db5782518255916020019190600101906108c0565b5b5090506108e991906108ed565b5090565b5b808211156109065760008160009055506001016108ee565b5090565b600061091d61091884610daf565b610d8a565b90508281526020810184848401111561093557600080fd5b610940848285610e59565b509392505050565b600081359050610957816110d8565b92915050565b60008135905061096c816110ef565b92915050565b60008135905061098181611106565b92915050565b600082601f83011261099857600080fd5b81356109a884826020860161090a565b91505092915050565b6000813590506109c08161111d565b92915050565b600080604083850312156109d957600080fd5b60006109e785828601610972565b92505060206109f885828601610948565b9150509250929050565b600060208284031215610a1457600080fd5b600082013567ffffffffffffffff811115610a2e57600080fd5b610a3a84828501610987565b91505092915050565b60008060408385031215610a5657600080fd5b600083013567ffffffffffffffff811115610a7057600080fd5b610a7c85828601610987565b9250506020610a8d8582860161095d565b9150509250929050565b600060208284031215610aa957600080fd5b6000610ab7848285016109b1565b91505092915050565b610ac981610e07565b82525050565b610ad881610e25565b82525050565b6000610ae982610de0565b610af38185610deb565b9350610b03818560208601610e68565b610b0c81610fd4565b840191505092915050565b6000610b2282610de0565b610b2c8185610dfc565b9350610b3c818560208601610e68565b80840191505092915050565b6000610b55601583610deb565b9150610b6082610fe5565b602082019050919050565b6000610b78601183610deb565b9150610b838261100e565b602082019050919050565b6000610b9b601683610deb565b9150610ba682611037565b602082019050919050565b6000610bbe602583610deb565b9150610bc982611060565b604082019050919050565b6000610be1601283610deb565b9150610bec826110af565b602082019050919050565b610c0081610e4f565b82525050565b6000610c128284610b17565b915081905092915050565b6000602082019050610c326000830184610ac0565b92915050565b6000602082019050610c4d6000830184610acf565b92915050565b60006020820190508181036000830152610c6d8184610ade565b905092915050565b60006020820190508181036000830152610c8e81610b48565b9050919050565b60006020820190508181036000830152610cae81610b6b565b9050919050565b60006020820190508181036000830152610cce81610b8e565b9050919050565b60006020820190508181036000830152610cee81610bb1565b9050919050565b60006020820190508181036000830152610d0e81610bd4565b9050919050565b6000604082019050610d2a6000830185610bf7565b610d376020830184610bf7565b9392505050565b6000608082019050610d536000830187610bf7565b610d606020830186610bf7565b610d6d6040830185610ac0565b8181036060830152610d7f8184610ade565b905095945050505050565b6000610d94610da5565b9050610da08282610ecd565b919050565b6000604051905090565b600067ffffffffffffffff821115610dca57610dc9610fa5565b5b610dd382610fd4565b9050602081019050919050565b600081519050919050565b600082825260208201905092915050565b600081905092915050565b6000610e1282610e2f565b9050919050565b60008115159050919050565b6000819050919050565b600073ffffffffffffffffffffffffffffffffffffffff82169050919050565b6000819050919050565b82818337600083830152505050565b60005b83811015610e86578082015181840152602081019050610e6b565b83811115610e95576000848401525b50505050565b60006002820490506001821680610eb357607f821691505b60208210811415610ec757610ec6610f76565b5b50919050565b610ed682610fd4565b810181811067ffffffffffffffff82111715610ef557610ef4610fa5565b5b80604052505050565b6000610f0982610e4f565b91507fffffffffffffffffffffffffffffffffffffffffffffffffffffffffffffffff821415610f3c57610f3b610f47565b5b600182019050919050565b7f4e487b7100000000000000000000000000000000000000000000000000000000600052601160045260246000fd5b7f4e487b7100000000000000000000000000000000000000000000000000000000600052602260045260246000fd5b7f4e487b7100000000000000000000000000000000000000000000000000000000600052604160045260246000fd5b6000601f19601f8301169050919050565b7f5469636b657220616c7265616479206578697374210000000000000000000000600082015250565b7f7469636b6572206e6f7420657869737421000000000000000000000000000000600082015250565b7f5469636b657220646f6573206e6f742065786973742100000000000000000000600082015250565b7f596f75206861766520616c726561647920766f74656420666f7220746869732060008201527f636f696e21000000000000000000000000000000000000000000000000000000602082015250565b7f796f7520617265206e6f74206c6f67496e210000000000000000000000000000600082015250565b6110e181610e07565b81146110ec57600080fd5b50565b6110f881610e19565b811461110357600080fd5b50565b61110f81610e25565b811461111a57600080fd5b50565b61112681610e4f565b811461113157600080fd5b5056fea264697066735822122076f65b3871a2ec2c300d94b8958b0d4e0b193b911175f35a0b46fb93e3d72b6264736f6c63430008040033",
  "linkReferences": {},
  "deployedLinkReferences": {}
}